:100000000C94A3010C94D4010C94D4010C94D4014D
:100010000C94D4010C94D4010C94D4010C94D4010C
:100020000C94D4010C94D4010C94D4010C94D401FC
:100030000C94D4010C94D4010C94D4010C94D401EC
:100040000C94D4010C94D4010C94D4010C94D401DC
:100050000C94D4010C94D4010C94D4010C940B296D
:100060000C94D4010C947F290C9455290C94D40140
:100070000C94D4010C94D4010C94D4010C94D401AC
:100080000C94D4010C94D4010C94D4010C94D4019C
:100090000C94D4010C94D4010C94D4010C94E72753
:1000A0000C94D4010C94D4010C94D4010C94D4017C
:1000B0000C94D4010C94D4010C94D4010C94D4016C
:1000C0000C94D4010C94D4010C94D4010C94D4015C
:1000D0000C94D4010C94D4010C94D4010C94D4014C
:1000E0000C94D4010C9439180C94732C0C94D705EF
:1000F0000C94EF020C943D140C9401030C940B032C
:100100000C9457140C94192C0C9421020C946B2C05
:100110000C944E140C94A0040C94DB020C94F30287
:100120000C94851C0C94CC020C9483050C94450211
:100130000C94C31E0C949D2B0C94E9060C94E502C0
:100140000C94FC1E0C945B0F0C94841E0C94D40233
:100150000C94B5290C9420020C94281F0C94CF0FFA
:100160000C9449140C94C6020C94DC040C94D00238
:100170000C9479020C94D4050C94F9060C940703A2
:100180000C94DB050C94AF1C0C94F0040C94872B9E
:100190000C94D8020C9451140C9454140C94650FC4
:1001A0000C94E8150C9432020C94FD020C94BC2CB7
:1001B0000C94141E0C94DE110C944C020C94FE044E
:1001C0000C9423020C9454160C94CD040C94F90254
:1001D0000C94EB020C94C9060C943A100C94232D49
:1001E0000C9406030C9422020C9444140C94EF110A
:1001F0000C94BB1F0C94E1020C9436050C94C214B1
:100200000C94702B0C94611F0C94C6060C94422C19
:100210000C940F0700002100240027002A002D0065
:100220003000330001010000040107010A01000051
:100230002200250028002B002E003100340002018E
:100240000000050108010B0100002000230026002A
:1002500029002C002F0032000001000003010601DC
:10026000090105050505070508080808020202023C
:100270000A0A080804040404010101010101010142
:100280000303030303030303040707070C0C0C0C0D
:100290000C0C0C0C020202020606060606060606F6
:1002A0000B0B0B0B0B0B0B0B010210202008081083
:1002B00020401020408002010201080402010102D6
:1002C00004081020408080402010080402018004AF
:1002D000020180402010080402010804020101020A
:1002E0000408102040800102040810204080000013
:1002F0000A0B02090C0D0E080703040100000000A0
:1003000000000000000000000000000000000000ED
:1003100000000000000000000000121110000000AA
:1003200000000000000000000000000000000000CD
:10033000000000007C3C3E5E2B3D3F2F5B5D3B2C74
:100340002A225C00B52911241FBECFEFD1E2DEBF07
:10035000CDBF00E00CBF21E1ACE1B5E001C01D92D2
:10036000A733B207E1F715E0A0E0B2E0EEE6F6E66B
:1003700000E00BBF02C007900D92AC31B107D9F776
:1003800011E0C3EAD1E000E006C021970109802F07
:10039000FE010E94112EC23AD10780E00807A9F79A
:1003A0000E94AB2A0C9435330C94000096E0899F90
:1003B000D0011124AB55BF4E90967C936E935F97FE
:1003C00091E091969C939197E0911211F091131105
:1003D00090911111992339F0309751F0811108C093
:1003E0008091C1101994309719F05C968C91FACFD6
:1003F00008952091200D260F3327331F2132310518
:10040000ECF42091460DFC0190E080E0243069F08E
:1004100082E00895A091200D2191AC014250534FEC
:10042000A40FB52FB11D2C930196861798F38091D8
:10043000200D680F6093200D80E0089581E00895FD
:10044000089508950895E091F50C8091F40CE81753
:1004500030F4F0E0EC52F34F808190E008958FEF9C
:100460009FEF08959091F50C8091F40C2FEF3FEFE2
:10047000981748F4E92FF0E0EC52F34F208130E078
:100480009F5F9093F50CC90108958091F40C9091B1
:10049000F50C891B990B0895CF92DF92EF92FF9292
:1004A0000F931F93CF93DF937C01CB018A0120919F
:1004B000D30C222389F0EB016B01C40ED51ECC15A1
:1004C000DD0569F06991D701ED91FC910190F08112
:1004D000E02DC7011995F3CF642F0E94F901C801DF
:1004E000DF91CF911F910F91FF90EF90DF90CF9010
:1004F0000895CF93DF931F92CDB7DEB76983209124
:10050000D30C2223F9F02091F60C203258F021E090
:1005100030E0FC013383228390E080E00F90DF9194
:10052000CF9108958091F70CE82FF0E0ED54F34F50
:10053000998190838F5F8093F70C8093F60C81E014
:1005400090E0ECCF61E0CE0101960E94F901F7CF77
:100550008150823108F05AC0E82FF0E08827EC542F
:10056000FD4F8F4F0C94112ED402D802C602CC023C
:10057000D0020603DB02E102E502EB02EF02F30226
:10058000F902FD020603010307030B0380918000BB
:100590008F77809380000895809180008F7DF9CFC0
:1005A00080918000877FF5CF84B58F7784BD0895D3
:1005B00084B58F7DFBCF8091B0008F778093B000A2
:1005C00008958091B0008F7DF9CF809190008F7752
:1005D000809390000895809190008F7DF9CF809155
:1005E0009000877FF5CF8091A0008F778093A00047
:1005F00008958091A0008F7DF9CF8091A000877F22
:10060000F5CF809120018F7780932001089580910C
:1006100020018F7DF9CF80912001877FF5CFCF9387
:10062000DF93282F30E0F901E251FD4F8491F90169
:10063000E855FD4FD491F901EE59FD4FC491CC23FB
:10064000A1F081110E94A802EC2FF0E0EE0FFF1F35
:10065000E85BFD4FA591B491EC91ED2381E090E032
:1006600009F480E0DF91CF91089580E090E0FACF27
:100670001F93CF93DF93282F30E0F901E251FD4F14
:100680008491F901E855FD4FD491F901EE59FD4FE0
:10069000C491CC23A9F0162F81110E94A802EC2F3F
:1006A000F0E0EE0FFF1FE25DFD4FA591B4918FB713
:1006B000F894EC91111108C0D095DE23DC938FBF24
:1006C000DF91CF911F910895DE2BF8CF1092460D48
:1006D00081E08093480D1092470D61E084E10E9413
:1006E000380361E085E10E943803E9EBF0E08081A6
:1006F0008E7F808380818D7F808388E48093B800A3
:1007000085E48093BC000895CF93DF9391E09093AC
:10071000FD0C8823B9F0C091B800D091BA00809147
:10072000BC008A7B8093BC0060E084E10E943803B7
:1007300060E085E10E9438030E946603D093BA000E
:10074000C093B800DF91CF910895CF93DF9390E0ED
:10075000FC01E855FD4F24918E599D4FFC01849179
:100760008823C9F090E0880F991FFC01EC5EFD4FD3
:10077000A591B491FC01E25DFD4FC591D491611149
:100780000DC09FB7F8948C91209582238C9388811B
:10079000282328839FBFDF91CF910895623051F4C1
:1007A0009FB7F8943C91822F809583238C93E881A6
:1007B0002E2BEFCF8FB7F894EC912E2B2C938FBF6D
:1007C000EACF3FB7F8948091AF0C9091B00CA09114
:1007D000B10CB091B20C26B5A89B05C02F3F19F003
:1007E0000196A11DB11D3FBFBA2FA92F982F8827B1
:1007F000BC01CD01620F711D811D911D42E0660F8C
:10080000771F881F991F4A95D1F708958F929F925D
:10081000AF92BF92CF92DF92EF92FF924B015C01B9
:100820000E94E1036B017C010E94E1036C197D09C8
:100830008E099F09683E734081059105A8F321E068
:10084000821A9108A108B10888EEC80E83E0D81E6C
:10085000E11CF11C81149104A104B10429F7FF905B
:10086000EF90DF90CF90BF90AF909F908F900895C2
:100870002FB7F8946091AB0C7091AC0C8091AD0CDB
:100880009091AE0C2FBF08950F931F93CF93DF93DA
:10089000C82FD62F86E0C89FF0011124EB55FF4EDC
:1008A00011A2878D90A181309105F1F058F082302E
:1008B0009105F1F1039709F440C0DF91CF911F91A9
:1008C0000F9108956623C9F361E070E08C2F0E94B8
:1008D000D6010E9438046093FD107093FE1080933F
:1008E000FF1090930011E9CF0E9438040091FD1091
:1008F0001091FE102091FF1030910011AB01BC014E
:10090000401B510B620B730B80910F1190911011D2
:10091000B0E0A0E084179507A607B70748F462E0A7
:1009200070E08C2FDF91CF911F910F910C94D60125
:1009300063E070E0D111C1CFF4CF70E060E0F1CF9F
:10094000AF92BF92CF92DF92EF92FF920F931F93DD
:10095000CF93DF936C017B018B01040F151FEB011B
:100960005E01AE18BF08C017D10759F06991D601D2
:10097000ED91FC910190F081E02DC6011995892B34
:1009800079F7C501DF91CF911F910F91FF90EF9003
:10099000DF90CF90BF90AF900895FC01538D448DB0
:1009A000252F30E0842F90E0821B930B541710F01A
:1009B000CF96089501970895FC01918D828D981727
:1009C00061F0A28DAE0FBF2FB11D5D968C91928DFF
:1009D0009F5F9F73928F90E008958FEF9FEF089530
:1009E000FC01918D828D981731F0828DE80FF11DF9
:1009F000858D90E008958FEF9FEF0895FC01918D14
:100A0000228D892F90E0805C9F4F821B91098F730C
:100A1000992708958BE79FE00E94FE0421E0892B2F
:100A200009F420E0822F0895FC01A48DA80FB92FAE
:100A3000B11DA35ABF4F2C91848D90E001968F7306
:100A40009927848FA689B7892C93A089B1898C9125
:100A5000837080648C93938D848D981306C0028874
:100A6000F389E02D80818F7D80830895EF92FF923E
:100A70000F931F93CF93DF93EC0181E0888F9B8DC1
:100A80008C8D98131AC0E889F989808185FF15C07B
:100A90009FB7F894EE89FF896083E889F98980819E
:100AA0008370806480839FBF81E090E0DF91CF916D
:100AB0001F910F91FF90EF900895F62E0B8D10E08F
:100AC0000F5F1F4F0F731127E02E8C8D8E110CC0FE
:100AD0000FB607FCFACFE889F989808185FFF5CF49
:100AE000CE010E941405F1CFEB8DEC0FFD2FF11D0F
:100AF000E35AFF4FF0829FB7F8940B8FEA89FB8986
:100B000080818062CFCFCF93DF93EC01888D8823E3
:100B1000B9F0AA89BB89E889F9898C9185FD03C060
:100B2000808186FD0DC00FB607FCF7CF8C9185FF45
:100B3000F2CF808185FFEDCFCE010E941405E9CF71
:100B4000DF91CF91089580E090E0892B29F00E94F9
:100B50000A0581110E94000080E090E0892B49F095
:100B600080E090E0892B29F00E94000081110E9412
:100B7000000080E090E0892B49F080E090E0892B34
:100B800029F00E94000081110E94000080E090E0A6
:100B9000892B49F080E090E0892B29F00E94000029
:100BA00081110C9400000895862F0C940F03862F5A
:100BB000642F0C943803862F642F0C94A503CF92D6
:100BC000DF92EF92FF920F931F93CF93DF93FC017D
:100BD000C48121E02093D30CC09309081092F70C34
:100BE0001092F60C8485682B8FE69FE00E947902B4
:100BF000D091F60CD13208F092C00E94E1036B0153
:100C00007C018091460D811165C082E08093460D84
:100C100081E08093480D8FEF8093450D10926A0D0F
:100C2000D093690DA3EBBCE0E9E4FDE080E0D813CC
:100C300085C010926B0D80916B0DCC0FC82BC093AB
:100C40006B0D8091470D813009F07CC01092470DEB
:100C50000E94E1036B017C0180916B0D8093BB00CE
:100C60008091F90C9091FA0CA091FB0CB091FC0CC6
:100C7000892B8A2B8B2B99F00E94E1030091F90CB0
:100C80001091FA0C2091FB0C3091FC0C6C197D0931
:100C90008E099F090617170728073907E0F1809189
:100CA000BC0083FDD9CF85EC8093BC000E94E1039A
:100CB0006B017C018091460D823009F445C0809122
:100CC000450D8F3F61F18091450D803241F180915A
:100CD000450D25C08091F90C9091FA0CA091FB0C68
:100CE000B091FC0C892B8A2B8B2B09F48ACF0E94A4
:100CF000E1030091F90C1091FA0C2091FB0C30915A
:100D0000FC0C6C197D098E099F0906171707280727
:100D1000390708F076CF8091F80C0E948403109276
:100D2000F70C1092F60C1092D30CDF91CF911F911B
:100D30000F91FF90EF90DF90CF9008959D91919348
:100D40008F5F75CF85EEB0CF8091F90C9091FA0C42
:100D5000A091FB0CB091FC0C892B8A2B8B2B09F4F6
:100D6000A9CF0E94E1030091F90C1091FA0C209197
:100D7000FB0C3091FC0C6C197D098E099F0906173C
:100D800017072807390708F095CFC5CF90E080E016
:100D90000895DC015996ED91FC913097B9F0838963
:100DA0009489A589B6894285538564857585841B98
:100DB000950BA60BB70B811520E89207A105B1058D
:100DC00038F08FEF9FE7A0E0B0E0089590E080E07A
:100DD0000895DC0159968D919C91009739F0DC01C2
:100DE000ED91FC910480F581E02D199490E080E074
:100DF0000895CF93DF931F92CDB7DEB76983DC01EF
:100E0000ED91FC910280F381E02D41E050E0BE01C4
:100E10006F5F7F4F19950F90DF91CF910895BC01BF
:100E20006E5F7F4FDC01ED91FC910190F081E02D30
:100E300040E0199591E0811190E0892F089508957F
:100E400061E0FC0184810E943803809104088111D3
:100E50001092040808958EBD00000DB407FEFDCF6A
:100E60008EB508958FEF0C942B070F931F93CF939C
:100E7000DF93EC010E9438048B010E9432078F3F00
:100E800069F00E943804601B710B6C177D07A8F392
:100E900080E0DF91CF911F910F91089581E0F9CF0C
:100EA0008CBD9DBD0895DF92EF92FF920F931F932B
:100EB000CF93DF937C01062FD42E152F80E590E091
:100EC0000E94500760E0F70186850E94380382E1A6
:100ED0000E942B07CD2DD12F0C0F1D2F111DC017D8
:100EE000D10721F089910E942B07F9CF61E0F7012A
:100EF0008685DF91CF911F910F91FF90EF90DF904A
:100F00000C943803CF93DF93EC0180910408811196
:100F100009C081E080930408809118109091191005
:100F20000E94500760E08C81DF91CF910C943803D0
:100F30008F929F92AF92BF92FF920F931F93CF9386
:100F4000DF93EC01F62E49015A018E81882389F046
:100F50008F8198859C012F5F3F4F38872F83823088
:100F6000924018F40E943207F3CFCE010E9420076E
:100F70001E82CE010E9482078CE291E00E9435071A
:100F80008F2D80640E942B0708E110E0D501C40179
:100F9000002E04C0B695A795979587950A94D2F729
:100FA0000E942B0708501109083F8FEF180771F7AF
:100FB00085E9FF2021F028E087E8F2128FEF0E94F8
:100FC0002B0710E00E9432078A8787FF04C01F3F6B
:100FD00011F01F5FF7CFDF91CF911F910F91FF901D
:100FE000BF90AF909F908F900895AF92BF92CF9295
:100FF000DF92EF92FF920F931F93CF93DF93EC0159
:101000006901C801820F931F8130924050F58E8193
:10101000882379F088819981AA81BB8184179507FB
:10102000A607B70731F48F819885C816D90608F04E
:1010300042C0488359836A837B838B85833039F030
:1010400089E0440F551F661F771F8A95D1F79A01D3
:10105000AB0161E1CE010E949807882389F083E00B
:101060008D83CE010E94200780E0DF91CF911F91F8
:101070000F91FF90EF90DF90CF90BF90AF900895C9
:101080000E9438045B010E9432078A878F3F69F40F
:101090000E9438046A197B096D327140A0F38FE019
:1010A0008D83CE010E942007DCCF8E3F89F4188605
:1010B0001F8281E08E838F8198858C159D0550F469
:1010C0000E9432078F819885019698878F83F3CF8E
:1010D0008DE0E6CF6701E00EF11E0E943207F601B7
:1010E00081936F01EE15FF05C1F78F819885080F79
:1010F000191F18870F838985882319F0011512405D
:10110000A0F08E81882389F08F8198859C012F5FC4
:101110003F4F38872F838230924018F40E94320765
:10112000F3CFCE010E9420071E8281E09ECFCF9296
:10113000DF92EF92FF920F93CF93DF93EC0169015F
:1011400082E1411551056105710599F08B85833068
:1011500039F089E0440F551F661F771F8A95D1F734
:101160009A01AB0168E1CE010E949807882319F02B
:1011700084E08D832DC08EEF0E942B0776018EEFC9
:10118000D81AF70181917F010E942B07EC14FD040E
:10119000C1F78FEF0E942B078FEF0E942B070E9451
:1011A00032078A878F71853071F4011116C0CE0124
:1011B0000E94200781E0DF91CF910F91FF90EF9087
:1011C000DF90CF90089581E18D83CE010E942007AA
:1011D000CE010E94200780E0EECF88E592E00E94D9
:1011E0003507811102C085E1C4CF20E030E0A901BC
:1011F0006DE0CE010E949807882311F084E1B9CFF9
:101200000E9432078111FACFD2CF0F934091050887
:101210005091060860910708709108084115510522
:101220006105710599F0082F2FE63DE080916C0D66
:1012300090916D0D0E949708882349F0109205083F
:1012400010920608109207081092080881E00F918A
:1012500008950F93CF93C82F80916E0D811105C013
:10126000C1E08C2FCF910F910895409100025091D1
:10127000010260910202709103020C2F2FE63DE003
:1012800080916C0D90916D0D0E949708811102C0A4
:10129000C0E0E7CFCC2321F381E00E940509882339
:1012A000B9F310926E0DDDCF8F929F92AF92BF92E5
:1012B000EF92FF920F931F93CF934B015C01C42FCA
:1012C0008091000290910102A0910202B09103026C
:1012D00088159905AA05BB0551F181E00E942909ED
:1012E00081110BC080E0CF911F910F91FF90EF9083
:1012F000BF90AF909F908F9008958FE6E82E8DE07D
:10130000F82E00E012E030E020E0B501A401809169
:101310006C0D90916D0D0E94F507882319F3809252
:10132000000290920102A0920202B0920302409148
:101330006E0D4C2B40936E0D81E0D5CF8F929F9216
:10134000AF92BF92CF92DF92EF92FF92CF932AE1BA
:1013500030E130936D0D20936C0D882309F46DC03E
:1013600040E060E070E0CB010E94540981110BC0A5
:1013700080E0CF91FF90EF90DF90CF90BF90AF9043
:101380009F908F90089580912D0F8F7789F780918E
:10139000390F90913A0FA0913B0FB0913C0F8436DA
:1013A0009105A105B10520F3C090350FD090360FFF
:1013B000E090370FF090380FC114D104E104F1042C
:1013C000B9F240E0C701B6010E945409882381F2B6
:1013D00080917A0D90917B0D8115924049F6A091F4
:1013E0007F0DAA2329F260917D0D70917E0D61150C
:1013F000710509F4BDCF20917C0D222309F4B8CFEB
:10140000A093381020932A1090E080E030E0E1E0D3
:10141000F0E0C82FAF01082E02C0440F551F0A94F8
:10142000E2F72417350769F041E0480F019689304B
:10143000910579F7409333109BCFC12CD12C7601C5
:10144000C0CF809333102091850D3091860D50E0F0
:1014500040E02115310541F42091930D3091940D18
:101460004091950D5091960D20932B1030932C1098
:1014700040932D1050932E1046015701860E971E53
:10148000A11CB11C8092391090923A10A0923B108E
:10149000B0923C10E091800DF091810DF0933F10DF
:1014A000E0933E10B0E00E94C12DDC01CB01880D1D
:1014B000991DAA1DBB1D8093401090934110A093CD
:1014C0004210B093431025E0EE0FFF1F2A95E1F77D
:1014D000E150FE4FEF2FFF27E6958E0F9F1FA11DB6
:1014E000B11D8093341090933510A0933610B093B3
:1014F00037108090820D9090830DB12CA12C811417
:10150000910441F480908F0D9090900DA090910DDA
:10151000B090920DC81AD90AEA0AFB0AC80CD91C65
:10152000EA1CFB1C04C0F694E794D794C794CA95B0
:10153000D2F7C0922F10D0923010E0923110F0927A
:10154000321085EFC8168FE0D806E104F10428F4C4
:101550008CE080933D1081E00CCF80E125EFC21636
:101560002FEFD206E104F104A0F380919B0D90913E
:101570009C0DA0919D0DB0919E0D80934010909375
:101580004110A0934210B093431080E2E2CF4F92FB
:101590005F926F927F928F929F92AF92BF92CF9203
:1015A000DF92EF92FF920F931F93CF93DF93EC01A3
:1015B000423051056105710590F480E0DF91CF91D3
:1015C0001F910F91FF90EF90DF90CF90BF90AF9061
:1015D0009F908F907F906F905F904F900895898536
:1015E0009A85AB85BC850196A11DB11D8417950711
:1015F000A607B70710F3CB88DC88ED88FE888F89B3
:10160000803109F042C0BB27A72F962F852F4801B4
:1016100059012A013B01C80ED91EEA1EFB1E80910A
:10162000000290910102A0910202B0910302C8163B
:10163000D906EA06FB0699F58F898031C1F5B30119
:10164000A201552766277727440F551F4159524F4E
:10165000FA019182808280916E0D816080936E0D7F
:101660008A89823080F08D819E81AF81B8858C0D12
:101670009D1DAE1DBF1D8093050890930608A09385
:101680000708B093080881E099CFDB01CA01E7E0C1
:10169000B695A79597958795EA95D1F7B8CF40E08D
:1016A000C701B6010E9454098111C6CF86CFB3018C
:1016B000A2014F77552766277727440F551F440F00
:1016C000551F4159524FFA0180829182A282B38202
:1016D000C2CF8F929F92AF92BF92CF92DF92EF9242
:1016E000FF920F931F93CF93DF93FC018185928527
:1016F000A385B4850196A11DB11D84179507A60782
:10170000B70770F480E0DF91CF911F910F91FF90A8
:10171000EF90DF90CF90BF90AF909F908F90089503
:1017200083889488A588B6888789803189F5BB2706
:10173000A72F962F852FE9016A017B018F01BC013C
:10174000CD01680D791D8A1D9B1D8090000290902F
:101750000102A0900202B090030286169706A80626
:10176000B90601F5F8018789803111F5DD24EE24F1
:10177000FF24F601EE0FFF1FE159F24F80819181A6
:10178000B0E0A0E088839983AA83BB8381E0BBCFCC
:10179000DB01CA01C7E0B695A79597958795CA95CD
:1017A000D1F7C9CF40E00E9454098111DBCFAACF05
:1017B000E894C7F8DD24EE24FF24F601EE0FFF1FA6
:1017C000EE0FFF1FE159F24F80819181A281B38119
:1017D000BF70D8CF4F925F926F927F92AF92BF92BD
:1017E000CF92DF92EF92FF920F931F93CF93DF93ED
:1017F00000D01F92CDB7DEB78C0149835A836B832B
:101800007C835901C12CD12C7601412C82E0582EC9
:10181000612C712C49815A816B817C819E012F5FE3
:101820003F4FC8010E94690B882339F1F801858573
:10183000A301920104C0220F331F441F551F8A9534
:10184000D2F7DA01C901C80ED91EEA1EFB1E498172
:101850005A816B817C818789803111F188EF9FEFFC
:10186000AFEFBFE0481759076A077B0798F2F50109
:10187000C082D182E282F38281E00F900F900F90BC
:101880000F90DF91CF911F910F91FF90EF90DF901C
:10189000CF90BF90AF907F906F905F904F900895E2
:1018A00088EF9FEFA0E0B0E0DDCFCF93DF93FC01A6
:1018B0002581222321F080E0DF91CF910895EC0172
:1018C00080913D10803159F582E08583178A108E12
:1018D000118E128E80913E1090913F10B0E0A0E0EA
:1018E00025E0880F991FAA1FBB1F2A95D1F7838B6C
:1018F000948BA58BB68B86E290E19C8F8B8F81E0D9
:101900008C831E821F82188619861A861B861C8667
:101910001D861E861F86188A198A1A8ACDCF8032A4
:1019200051F683E0858340914010509141106091C1
:10193000421070914310478B508F618F728F9F01BF
:101940002D5E3F4F86E290E10E94EA0B8111D3CFDA
:10195000B2CF8F929F92AF92BF92CF92DF92EF92CF
:10196000FF920F931F93CF93DF93EC018D81811131
:101970000EC080E0DF91CF911F910F91FF90EF900B
:10198000DF90CF90BF90AF909F908F9008950B897C
:101990001C892D893E89041715072607370748F348
:1019A0004A015B01823031F48A869B86AC86BD8613
:1019B00081E0E0CF81149104A104B10449F41E82B6
:1019C0001F82188619861A861B861C861D86F0CFF4
:1019D0000A851B852C853D85EB8DFC8D858590E0EA
:1019E0000996B901A8014150510961097109082EF0
:1019F00004C076956795579547950A94D2F7750177
:101A00006401E1E0CE1AD108E108F10804C0F694BF
:101A1000E794D794C7948A95D2F7C416D506E606FC
:101A2000F70620F0012B022B032B11F58F89988DDF
:101A3000A98DBA8D8E839F83A887B9878E010A5F8F
:101A40001F4FC114D104E104F10409F4ADCF4E815C
:101A50005F816885798598018B8D9C8D0E94690BCB
:101A600091E0C91AD108E108F1088111EACF81CFCC
:101A7000C41AD50AE60AF70AE1CF3F924F925F9265
:101A80006F927F928F929F92AF92BF92CF92DF928E
:101A9000EF92FF920F931F93CF93DF93CDB7DEB7F3
:101AA0002C970FB6F894DEBF0FBECDBF5C01DC01F2
:101AB0005B968D909C905C9716964D905D906D9086
:101AC0007C901997411451046104710409F468C0B1
:101AD000BFEF4B1A5B0A6B0A7B0A312CF40181853C
:101AE0009285A385B4859C01AD012F5F3F4F4F4F79
:101AF0005F4F29873A874B875C87730162011D829C
:101B00001E821F821886F40181859285A385B48583
:101B10002D813E814F815885281739074A075B0779
:101B200008F056C089859A85AB85BC858C159D05C6
:101B3000AE05BF0550F482E0C82ED12CE12CF12C6B
:101B400092E0492E512C612C712C9E012F5F3F4F4A
:101B5000B701A601C4010E94690B8823C9F18981DC
:101B60009A81AB81BC81892B8A2B8B2B09F12601B1
:101B700037019FEF491A590A690A790A2D813E8176
:101B80004F8158852F5F3F4F4F4F5F4F2D833E83CF
:101B90004F8358873FEFC31AD30AE30AF30AB3CF40
:101BA000F40140805180628073803324339496CF57
:101BB000C414D504E604F70409F70FEF1FEF2FEF65
:101BC0003FE0B701A601C4010E94C70A811119C0F4
:101BD00080E02C960FB6F894DEBF0FBECDBFDF912C
:101BE000CF911F910F91FF90EF90DF90CF90BF901A
:101BF000AF909F908F907F906F905F904F903F90AD
:101C00000895D50116964D915D916D917C9119972E
:101C1000411551056105710539F097018601C4012F
:101C20000E94C70A8823A1F2D5011696CD92DD92B3
:101C3000ED92FC921997332051F0D701C60101961D
:101C4000A11DB11DF40180839183A283B383F501AB
:101C50008789908DA18DB28D892B8A2B8B2B39F49E
:101C60008481C78AD08EE18EF28E80688483F501EC
:101C700084818062848381E0ACCF2F923F924F9227
:101C80005F926F927F928F929F92AF92BF92CF920C
:101C9000DF92EF92FF920F931F93CF93DF93EC01AC
:101CA0005B012A018D81811115C08FEF9FEFDF91BC
:101CB000CF911F910F91FF90EF90DF90CF90BF9049
:101CC000AF909F908F907F906F905F904F903F90DC
:101CD0002F9008958C8180FFE8CF0B891C892D8976
:101CE0003E894A855B856C857D85C201B0E0A0E0B8
:101CF00068017901C41AD50AE60AF70AC816D90696
:101D0000EA06FB0618F42801441A550A42011E018E
:101D100026E0220E311C8114910409F4B3C04A85D7
:101D20005B856C857D856A0181E0D8228B8D9C8DD9
:101D30008A019B01E9E03695279517950795EA9565
:101D4000D1F7ED81E230E1F5FC01628D738D848D78
:101D5000958D600F711F821F931F612C22E0722EE0
:101D60006C187D088614970408F434012C8126FD34
:101D700004C06114F2E07F0671F40091000210913A
:101D8000010220910202309103020617170728076B
:101D9000390709F053C040E00E945409882309F430
:101DA00084CFC6018159924FD5019C01260D371D64
:101DB000FC012E173F0709F460C041914D93F9CF04
:101DC000FC0174807A947022C114D10471F47110F2
:101DD0000CC0452B462B472B39F58F89988DA98D43
:101DE000BA8D8E839F83A887B987EB8DFC8D6E811A
:101DF0007F818885998562507109810991092585BE
:101E000004C0660F771F881F991F2A95D2F7068591
:101E1000178520893189600F711F821F931F670DFD
:101E2000711D811D911D99CF4E815F8168857985D6
:101E300091010E94690B8111D8CF37CF75018301C1
:101E40009601AB01BC0180916C0D90916D0D0E94CB
:101E5000F507882309F429CFA60CB71C8A859B8532
:101E6000AC85BD85860D971DA11DB11D8A879B87F9
:101E7000AC87BD87861897084ECF281B390BA20E5A
:101E8000B31EECCFC20113CFCF93DF931F92CDB718
:101E9000DEB741E050E0BE016F5F7F4F0E943D0E14
:101EA000019731F4898190E00F90DF91CF910895EF
:101EB0008FEF9FEFF9CFFC01818D928D009711F08C
:101EC0000C94440F8FEF9FEF08950F931F93CF93C0
:101ED000DF93EC01898D9A8D10E000E0009799F076
:101EE0000E94440F8C010F3F100769F0898D9A8D75
:101EF000FC0142855385648575854150510961090E
:101F000071090E94A90CC801DF91CF911F910F9117
:101F100008951F93CF93DF93FC0125812223D1F1F4
:101F2000162FEC01848187FF2AC06685778580891A
:101F3000918941E00E945409882361F1EA8980E295
:101F4000E89FF0011124E159F24F309719F18D818A
:101F5000823040F48B899C89AD89BE89848F958FAE
:101F6000A68FB78F8F89988D938F828F8F89988D49
:101F7000A98DBA8DB58BA48B8C818F778C83111131
:101F800003C08C818F7E8C83812FDF91CF911F9135
:101F90000C94290980E0DF91CF911F910895FF9261
:101FA0000F931F93CF93DF93EC018D81813041F02C
:101FB00090E080E0DF91CF911F910F91FF90089505
:101FC0008C8181FFF5CF82FD1BC000916C0D1091BB
:101FD0006D0DC8010E9482070E943207F82EC801C9
:101FE0000E9420078FEFF812E3CF8C8185FF1BC082
:101FF00060E0CE010E94890F8C818F7D8C83D8CFC9
:102000004B895C896D897E898A859B85AC85BD8578
:1020100084179507A607B707C1F2CE010E94A90C45
:102020008111D3CFC5CF409105085091060860912A
:10203000070870910808452B462B472B21F080E0BC
:102040000E940509B5CF80618C832A853B8531705C
:1020500080E092E0821B930BADCFCF93DF93EC0136
:1020600061E00E94890F882311F01D8281E0DF91D9
:10207000CF910895FC01818D928D009719F061E058
:102080000C94890F08952F923F924F925F926F9216
:102090007F928F929F92AF92BF92CF92DF92EF92F8
:1020A000FF920F931F93CF93DF9300D01F921F9245
:1020B000CDB7DEB77C015B01342E5D83DC01159664
:1020C0008C911597813009F0CEC014962C9021FE8A
:1020D000CAC022FCB4C0C32CDD8022947FE027223A
:1020E0002094B22DB1702B2ED7011A964D915D918F
:1020F0006D917C911D97C114D10409F428C15B96A0
:102100008D919C915C97FC0174807A948A019B016B
:1021100069E036952795179507956A95D1F770224E
:102120008A011170711020C001151105E9F416968D
:102130004D915D916D917C91199741155105610506
:10214000710509F099C057968D919D910D90BC91A4
:10215000A02D0097A105B10509F0B0C0C7010E94EC
:102160003D0D882309F47FC080E092E0801B910B35
:1021700046018C159D0508F44C01D7015B964D91E5
:102180005C915C9716968D919D910D90BC91A02DC0
:102190000297A109B109FA01258504C0880F991F8A
:1021A000AA1FBB1F2A95D2F746855785608971897A
:1021B000840F951FA61FB71F9C01AD01270D311D70
:1021C000411D511D29013A01811432E0930609F0A5
:1021D0007BC08091000290910102A0910202B09117
:1021E000030284159505A605B70559F48FEF9FEFF7
:1021F000DC018093000290930102A0930202B0934D
:102200000302022D9501B301A20180916C0D909102
:102210006D0D0E949708882331F19EEFB91AC818F6
:10222000D908F70182859385A485B585880D991D08
:10223000A11DB11D82879387A487B58755CFF7016C
:10224000438954896589768982859385A485B58576
:10225000481759076A077B0709F43DCFC7010E9459
:10226000A90C811138CF81E090E0D70113969C939F
:102270008E93129780E007C09E012F5F3F4F0E9410
:10228000690B811102C090E079C089819A81AB818C
:10229000BC81F701238D348DF901278948EF5FEF69
:1022A00060E070E0203121F048EF5FEF6FEF7FE0FA
:1022B00084179507A607B70708F050CFF701868364
:1022C0009783A087B18750CF0115110599F5D701E4
:1022D0001A964D915D916D917C911D9753968D91BC
:1022E0009D910D90BC91A02D481759076A077B0757
:1022F00008F181E00E942909882309F4B4CF4092B3
:1023000000025092010260920202709203028091D8
:102310006E0D816080936E0DC8018159924FD50179
:102320009C01280D391DFC012E173F0759F04D91D6
:102330004193FACF41E0C301B2010E9454098111D7
:10234000EBCF91CF281B390BA20EB31E68CFF7013C
:1023500083899489A589B68984179507A607B70745
:1023600038F48481438B548B658B768B80688483AF
:10237000F701848183FD1AC0832D9D810F900F90FA
:102380000F900F900F90DF91CF911F910F91FF90C1
:10239000EF90DF90CF90BF90AF909F908F907F9005
:1023A0006F905F904F903F902F90089561E0C7012C
:1023B0000E94890F882309F456CFDECFCF93DF9395
:1023C0001F92CDB7DEB7698341E050E0BE016F5F79
:1023D0007F4F0E9443100F90DF91CF910895CF93CC
:1023E000DF93EC01E98DFA8D309749F481E090E0BC
:1023F0009B838A8390E080E0DF91CF9108951382E0
:102400001282898D9A8D0E944310E98DFA8D228166
:102410003381232B59F7F0CF1F93CF93DF93EC0138
:10242000162F80E590E00E94500760E08E850E94A4
:102430003803812F80680E942B0780E00E942B07C1
:10244000182F61E08E850E943803812FDF91CF9194
:102450001F9108950F931F93CF93DF93EC01062FE5
:10246000142F80E590E00E94500760E08E850E9466
:102470003803802F0E942B07812F0E942B0761E0D9
:102480008E85DF91CF911F910F910C943803CF92DD
:10249000DF92EF92FF920F931F93CF93DF93EC01A4
:1024A0006B01F42E890140E062E00E942A1244E0B0
:1024B0006AE0CE010E942A1240E864E1CE010E9447
:1024C0002A12A6016F2DCE010E94530743E062E05D
:1024D000CE010E942A120E9438046B017C0129E57A
:1024E000C20ED11CE11CF11C6AE0CE010E940C124C
:1024F00082FF1BC040E062E0CE010E942A1264E429
:10250000CE010E940C12F801808362E4CE010E9489
:102510000C12F801818380E0DF91CF911F910F9120
:10252000FF90EF90DF90CF9008950E9438046C15D3
:102530007D058E059F05C0F283E0EECFCF93CFB728
:10254000F89480910308811127C0E7E9F2E08491B3
:10255000EDEDF2E09491E82FF0E0EE0FFF1FEC5E5E
:10256000FD4FA591B491EC91E92321F461E085E35D
:102570000E94380361E085E30E94A5038CB5806169
:102580008CBD8CB580648CBD61E084E30E94A503A2
:1025900061E083E30E94A503809103088F5F80932D
:1025A0000308CFBFCF910895CF92DF92EF92FF92B1
:1025B0000F931F93FB01309701F1C080D180E2801F
:1025C000F380DA010D911D912D913C91C016D10639
:1025D000E206F30671F424E33496DC0101900D92D7
:1025E0002A95E1F71F910F91FF90EF90DF90CF9028
:1025F000089500ACF1ADE02DDECF24E3FC01119293
:102600002A95E9F7EFCF0F931F93CF93DF93FC0148
:102610003097C9F00081118122813381EB018881DB
:102620009981AA81BB81081719072A073B0739F44A
:1026300084819581DF91CF911F910F91089506803C
:10264000F781E02DE5CF90E080E0F4CFCF93DF93EA
:1026500060E082E00E943803C0EAD8E061E081E0F7
:102660000E94380383E00E940F0321E0892B09F4C4
:1026700020E0299360E081E00E94380361E070E08F
:1026800080E090E00E94060488E0C23DD80731F760
:1026900061E082E0DF91CF910C943803EF92FF92DA
:1026A0000F931F93CF93DF93CEE6D8E08CE3E82E11
:1026B00088E0F82E0AE018E060E083E00E9438032A
:1026C000699186E00E943803F70161917F0184E0FF
:1026D0000E943803F80161918F018AE00E9438035B
:1026E00061E082E00E94380361E070E080E090E009
:1026F0000E94060460E082E00E94380361E083E00B
:102700000E94380361E070E080E090E00E940604DF
:10271000F8E0C03ADF0781F6DF91CF911F910F916A
:10272000FF90EF9008959091A8098091A0089813C8
:1027300009C09091A9098091A108981306C08FEF54
:102740009FEF089590E080E0089581E090E0089583
:10275000EF92FF920F931F93CF93DF93F091161197
:10276000C7E1D1E1E0E060E070E0CB01FE1779F075
:1027700029917B018C01E20EF11C011D111DA801A4
:102780009701AAE0B0E00E94C12DEF5FEFCFDF918B
:10279000CF911F910F91FF90EF9008950F931F938A
:1027A000E091D608F091D7080190F081E02D3097A4
:1027B00069F00081118122813381601771078207DE
:1027C000930741F00680F781E02DF1CF80E01F9163
:1027D0000F91089581E0FBCF61E087E00C9438030E
:1027E0000F931F9388E00E940F030197B1F40E949A
:1027F00038040091DA091091DB092091DC0930914D
:10280000DD09AB01BC01401B510B620B730B81E076
:10281000493853416105710508F480E01F910F911B
:102820000895CF93DF93D62FC42F682F89E00E949D
:1028300038036D2F8AE00E9438036C2F8BE0DF9104
:10284000CF910C943803FC013197E730F10568F41F
:102850008827E25DFB4E8F4F0C94112E3D144414DB
:1028600049144E1451145414571450E040E070E0D1
:1028700060E08FEF90E00C94111450E040E06FEFB7
:1028800070E090E080E0F7CF4FEF50E070E060E064
:10289000F8CF50E040E06FEF70E0EBCF4FEF50E04B
:1028A000EECF4FEF50E0E3CF4FEF50E0F4CF50E0EA
:1028B00040E0ECCFCF93DF93EC010E94380428EE88
:1028C00033E040E050E00E94EF2D643F714081050D
:1028D000910528F4CE01DF91CF910C94231487E069
:1028E00090E0F9CFFC01DB0112968D919C9113973A
:1028F000938382838FE592E09183808314968C91F9
:102900001497848315968C911597858316964D910F
:102910005D916D917C91199746835783608771878C
:102920001A964D915D916D917C911D9742875387C9
:10293000648775871E964D915D916D917C9151973D
:1029400046875787608B718B52968C915297828BFA
:1029500053964D915D916D917C915697438B548B1D
:10296000658B768B57964D915D916D917C915A97C1
:10297000478B508F618F728F5B968D919C91948F56
:10298000838F089508950F931F93CF93DF93EC01E6
:1029900080E2689FF0011124E159F24F6A8B809127
:1029A000000290910102A0910202B09103028E8771
:1029B0009F87A88BB98B0489158930E020E09801A6
:1029C000112700270F8B188F298F3A8F828D938DB7
:1029D000B0E0A0E0AC01BD01402B512B622B732B6A
:1029E0004F8B588F698F7A8F83858871A9F4848D76
:1029F000958DA68DB78D8B8B9C8BAD8BBE8B81E01F
:102A00008D8381E08C831E821F82188619861A8628
:102A10001B861C861D8603C0803131F080E0DF916B
:102A2000CF911F910F9108959E012D5E3F4F8B8D89
:102A30009C8D0E94EA0B882389F384E0E1CF4F92BA
:102A40005F926F927F928F929F92AF92BF92CF923E
:102A5000EF92FF920F931F93CF93DF93EC014B0103
:102A6000642E59017C2C729480EF7822F7018081CA
:102A7000780E40E062E0CE010E942A124FE768E043
:102A8000CE010E942A1240E864E1CE010E942A127F
:102A9000A401662DCE010E945307472D6AE1CE01A5
:102AA0000E942A124CE062E0CE010E942A126AE1E2
:102AB000CE010E940C12482F40686AE1CE010E94AC
:102AC0002A120E9438042B013C01F4E24F0E511CE3
:102AD000611C711C68E0CE010E940C12982F90734B
:102AE00009F06CC080FF11C083E0DF91CF911F918E
:102AF0000F91FF90EF90CF90BF90AF909F908F90ED
:102B00007F906F905F904F9008950E9438046415F5
:102B1000750586059705F0F2E7CF64E1CE010E94C6
:102B20000C12982EF8018081891508F445C0908216
:102B30009920B1F180E590E00E94500760E08E8519
:102B40000E9438039A9482E90E942B07CC2099F0C6
:102B50000FEF10E001C0000FCA94EAF782E90E946B
:102B60002B07902F9095F501208192238023982B9D
:102B70009083CC24C394AC0CB11CC91440F482E9FA
:102B80000E942B07F50181935F01C394F6CF80E08B
:102B90000E942B07F501808361E08E850E94380337
:102BA00068E1CE010E940C128770F701808382E0F9
:102BB00083FC9BCF80E099CF84E097CF6CE0CE017F
:102BC0000E940C12882E837109F4A7CF81E08DCF6B
:102BD000AF92BF92CF92EF92FF920F931F93CF933A
:102BE000DF9300D01F921F92CDB7DEB75C0182E069
:102BF0008D8340E064E2C5010E942A1240E066E253
:102C0000C5010E942A1246E268E4C5010E942A1208
:102C100086E28B838D818230C8F16CE1C5010E9410
:102C20000C12482F4F776CE1C5010E942A1287E0F1
:102C30008C83C12CCE0104967C018E010B5F1F4F4B
:102C40009E012F5F3F4F41E0BE016D5F7F4FC50189
:102C50000E941F15982F811116C08D818230B1F40A
:102C60008C81811113C081E00F900F900F900F9015
:102C70000F90DF91CF911F910F91FF90EF90CF9028
:102C8000BF90AF90089581E0923071F380E0ECCF77
:102C900084E191E10E94E815882321F084E191E12B
:102CA0000C940F0780E008952F923F924F925F920D
:102CB0006F927F928F929F92AF92BF92CF92DF924C
:102CC000EF92FF920F931F93CF93DF93CDB7DEB7B1
:102CD0002C970FB6F894DEBF0FBECDBF16E041357E
:102CE00008F049C1342E4B015C016CE10E940C12CA
:102CF000482F4F776CE1C5010E942A1283E989832E
:102D0000332029F081E0F4019081953008F480E0CF
:102D100044244394512C952D990F990F990FD32C3E
:102D2000D91AD7FCD12C32E0882319F098E89B837C
:102D300033E021E09D2D977009F420E09D2D9595BD
:102D400095959595290FC9F094E0811193E0291785
:102D500008F4922FE52DF0E03196E80DF91D232FB0
:102D60004191A1E0B0E0AC0FBD1FA20FB11D4C938B
:102D70002F5F422F431B491798F3882311F0F8E087
:102D8000DF0E8FE18D150CF081C090E79A838B8167
:102D90009C8189279D8189279E8189278F839E0118
:102DA000285F3F4F47E0BE016F5F7F4FC5010E9424
:102DB0004712182F8111DFC01A86E3E0EB87DC860B
:102DC000CE0107963C0129E0222ECA844C2D429563
:102DD000407F4C0D6AE1C5010E942A12FE013A961D
:102DE0007F018E01055F1F4F9301422DBE016F5F72
:102DF0007F4FC5010E941F15182F823009F065C052
:102E00006CE1C5010E940C1285FDB5C08F7109F4FB
:102E100080E2282F30E04D2DDD0C550B4217530773
:102E20000CF09DC0D82EE82FE595E595E595EF5F70
:102E3000982F977081E009F480E0E80F81E090E03E
:102E40008C0F9D1F8E0F911DFC01215031092770A1
:102E5000332781E090E002C0880F991F2A95E2F79E
:102E60009C018081822B80838CCF85E989833320EC
:102E700031F081E0F4019081983008F04CCF80E08F
:102E80004ACF87E9898336E0532EF9CF9D2D97707D
:102E90009A878D2D8595859585958E5F282F22950E
:102EA000207F290F2A8321E0911101C020E0222EEA
:102EB000280E66246394712C6C0E7D1E680E711CA6
:102EC00099E0981B9B87DC8680CF811154C080E2FB
:102ED000D82E9C8590320CF458CF8B81883809F01D
:102EE00040C083E093E0E52DF0E03196E80DF91D58
:102EF000980FA1E0B0E0AC0FBD1FA80FB11D2C9141
:102F000021938F5F8913F5CF5B84E3E05E124DC0A0
:102F10008A8581114AC09E012D5F3F4F41E0B30178
:102F2000C5010E944712182F811125C09B81F30112
:102F3000818198133CC09C818281981338C0808124
:102F400082FF12C04394F2E04F1609F48ECF83E063
:102F5000481609F496CF91E0491609F4CFCE15E052
:102F60000AC082E094E0BFCFF4018387842D880FEC
:102F7000480E43944082812F2C960FB6F894DEBF02
:102F80000FBECDBFDF91CF911F910F91FF90EF90BA
:102F9000DF90CF90BF90AF909F908F907F906F9079
:102FA0005F904F903F902F90089511E0E4CF17E08D
:102FB000E2CF0F931F93CF938C01C62F0E94DF05A2
:102FC0006C2F6460C8010E94DF056C2F6B7FC80105
:102FD0000E94DF0583EC90E00197F1F7CF911F91FC
:102FE0000F9108950F931F93CF93DF938C01D62FEA
:102FF000C42F607F642B0E94D91780E1D89FB00155
:1030000011246C2BC801DF91CF911F910F910C946B
:10301000D917CF93DF9300D000D01F921F92CDB766
:10302000DEB798E0E1E1F2E0DE01119601900D9249
:103030009A95E1F790912C11981710F48FEF890F62
:1030400090E0880F991F21E030E02C0F3D1F820F88
:10305000931FFC016081606840E084E291E1289662
:103060000FB6F894DEBF0FBECDBFDF91CF910C94A9
:10307000F21741E00E94F21781E090E00895AF92CC
:10308000BF92CF92DF92EF92FF920F931F93CF9355
:10309000DF9300D000D000D01F921F92CDB7DEB7D3
:1030A0006C01FE013196CE010C967F0120E2219346
:1030B000E817F907E1F7DA0120E037E09D91B92E32
:1030C0009923A9F19E32B9F43A3091F480E02B961D
:1030D0000FB6F894DEBF0FBECDBFDF91CF911F9129
:1030E0000F91FF90EF90DF90CF90BF90AF90089539
:1030F00028E03AE0E3CFE4E3F3E08491882321F091
:1031000031969813FACFE2CF321700F38FED890F83
:103110008E35E0F68FE9890F8A3118F440EEB42E2F
:10312000B90EF701E20FF11DB0822F5FC7CF898181
:10313000803261F28B01FB01838D948DF601948FB7
:10314000838FFB01168217821086118612861386E2
:1031500014861586F80182859385A485B5854389F3
:1031600054896589768984179507A607B70708F0FB
:10317000ADCF25E0B695A795979587952A95D1F778
:10318000F82FFF70AF2EF8018581823008F49ECFB2
:10319000C8010E94440F97FD99CFF801828593855D
:1031A000A485B5854F96A11DB11D82879387A487FD
:1031B000B587F0E2AF9EB00111246159724F6115DD
:1031C000710509F483CFFB018081882309F1853ED5
:1031D00019F4B11032C01EC04BE050E0C7010E948C
:1031E0001F30892B09F0B6CF6A2DC6012B960FB67A
:1031F000F894DEBF0FBECDBFDF91CF911F910F912D
:10320000FF90EF90DF90CF90BF90AF900C94C314DD
:10321000B1105CCFF601A28A809100029091010268
:10322000A0910202B091030286879787A08BB18B91
:10323000FB018081882309F449CFBB24B3948ACF52
:10324000CF92DF92EF92FF920F931F93CF93DF9372
:10325000EC01CB01FE01E457FF4F118210828E0179
:1032600002571F4FF801118210827E01F0E9EF0E24
:10327000F11CF7011182108264E972E00E94592D5D
:1032800064E972E090E080E00E94592D76E4C72E58
:10329000D12C009721F1F7012081318126343105AD
:1032A000B8F4F80140815181FA01EE0FFF1FEC0FD5
:1032B000FD1F91838083CA010196B6010E94DB2D18
:1032C000F801918380832F5F3F4FF7013183208383
:1032D00064E972E090E080E00E94592DDACFCE01DF
:1032E000DF91CF911F910F91FF90EF90DF90CF90E2
:1032F0000895FB0101900020E9F73197AF01461BCB
:10330000570BDC01ED91FC910280F381E02D1994C3
:103310000F931F93CF93DF93EC01FB014481558101
:10332000608171810E94EF118C0163E972E0CE012E
:103330000E947919800F911FDF91CF911F910F91FA
:10334000089585ED8093BC008091F90C9091FA0C62
:10335000A091FB0CB091FC0C0796A11DB11D23E0C0
:10336000B695A795979587952A95D1F72091BC009A
:1033700024FD03C01092460D08954091F90C509120
:10338000FA0C6091FB0C7091FC0C452B462B472BE3
:1033900069F30097A105B10541F02AE22A95F1F7FA
:1033A00000C00197A109B109E1CF8091F80C0C94FC
:1033B00084030F931F93CF93DF93EC01888199814E
:1033C000009759F02A813B812617370730F081E0BA
:1033D000DF91CF911F910F9108958B016F5F7F4F08
:1033E0000E943E2F009759F0998388831B830A839C
:1033F0002C813D81232B59F7FC011082E8CF80E01E
:10340000E7CFEF92FF920F931F93CF93DF93611556
:10341000710541F480E0DF91CF911F910F91FF90F2
:10342000EF90089541155105B1F07B01EC010C813D
:103430001D81040F151FB8010E94D919882351F36B
:10344000288139818C819D81B701820F931F0E9451
:1034500049301D830C8381E0DECFCF93DF93EC01F5
:1034600088819981009711F00E94B52E19821882E7
:103470001D821C821B821A82DF91CF910895CF9307
:10348000DF93EC01198218821B821A821D821C8232
:1034900061E070E00E94D919811105C0CE01DF9171
:1034A000CF910C942D1A81E090E09D838C8366E986
:1034B00072E088819981DF91CF910C944930CF924D
:1034C000DF92EF92FF920F931F93CF93DF93CDB7CD
:1034D000DEB762970FB6F894DEBF0FBECDBF8C018A
:1034E000CB01F8011182108213821282158214829C
:1034F0004AE09E012F5F3F4F6901B9010E94842D70
:10350000F60101900020E9F731977F01EC18FD08E2
:10351000B701C8010E94D919811112C0C8010E94C7
:103520002D1A62960FB6F894DEBF0FBECDBFDF91A5
:10353000CF911F910F91FF90EF90DF90CF90089562
:10354000F801F582E482B601808191810E944930C0
:10355000E8CFCF93DF93EC016115710539F4CE010B
:103560000E942D1ACE01DF91CF910895FB010190A9
:103570000020E9F73197AF01461B570B0E94011A53
:10358000882369F3EFCFFC0180819181009711F0CE
:103590000C94B52E0895EF92FF920F931F93CF9343
:1035A000DF93EC017B018A011B821A8288EE93E093
:1035B000A0E0B0E08C839D83AE83BF8389E292E07C
:1035C000998388838DE190E00E94192E9A8F898FCC
:1035D000009779F02DE1F701DC0101900D922A9519
:1035E000E1F74CE050E0B801CE010C960E9450305B
:1035F000188EDF91CF911F910F91FF90EF9008955A
:103600002F923F924F925F926F927F928F929F92F2
:10361000AF92BF92CF92DF92EF92FF920F931F93E0
:10362000CF93DF93CDB7DEB7C656D1090FB6F89466
:10363000DEBF0FBECDBF6C015B0119A218A28FE5E2
:1036400092E09F8F8E8F1BA21C821B829A8389839C
:103650001E824E018EE1880E911CC4010E94550C01
:1036600075018E010F5F1F4F240118016FE270E09A
:10367000C7010E943530009709F45CC0F701208132
:103680002F3271F4FFEFEF1AFF0A902F812F820182
:10369000492E582E942D852D2801092F182FE6CF5D
:1036A0008E198D3008F08CE0682E712CA301B701C3
:1036B000CE01885A9F4F0E945030E8E5F0E0EC0FB1
:1036C000FD1FE60DF71D1082C8010E942D10F801A4
:1036D0008581882301F11EAE1DAE8FE592E09CAF7F
:1036E0008BAF21961FAE2197A796EEADFFADA797A2
:1036F000AE0EBF1EF5018081811129C0BE01655C3F
:103700007F4FC1010E94721448E952E0B101C60125
:103710000E94CB1A3AC0AE01485A5F4FB201C801AD
:103720000E943F188823B9F2E60CF71CC2010E94E0
:103730002D10B0CFC7018A199B09A7969FAF8EAFF6
:10374000A797B201CE01CB960E947214CDCF19A2D9
:1037500018A28FE592E09F8F8E8F1BA221968FADCE
:10376000219781112DC0F6011382128288EE93E019
:10377000A0E0B0E084839583A683B78389E292E0DA
:1037800091838083128E118E1486C601CA59DF4F31
:103790000FB6F894DEBF0FBECDBFDF91CF911F9162
:1037A0000F91FF90EF90DF90CF90BF90AF909F90E0
:1037B0008F907F906F905F904F903F902F900895E3
:1037C000A501BE01655C7F4FC4010E943F1888239C
:1037D00051F2CE01CB960E942D10B401C1010E947E
:1037E0007214A50193CFAF92BF92CF92DF92EF9266
:1037F000FF920F931F93CF93DF93CDB7DEB76B97F5
:103800000FB6F894DEBF0FBECDBFBC01CE0101964E
:103810000E94001BAA8CBB8CA114B104A9F1F50174
:103820008581882389F1C388D488E588F688C60114
:10383000019611F481E090E00E94192E8C01A601FE
:10384000BC01C5010E943D0EC00ED11EF6011082C2
:103850008A8D9B8D009731F00E942D108A8D9B8D53
:103860000E94B52EC8016B960FB6F894DEBF0FBE4E
:10387000CDBFDF91CF911F910F91FF90EF90DF901F
:10388000CF90BF90AF90089581E090E00E94192EF4
:103890008C01FC011082E6CF4F925F926F927F9273
:1038A0008F929F92AF92BF92CF92DF92EF92FF9250
:1038B0000F931F93CF93DF93CDB7DEB7C15AD109D2
:1038C0000FB6F894DEBF0FBECDBF5C010E94380476
:1038D0006093DA097093DB098093DC099093DD092A
:1038E000F5013197E930F10508F034C18827E45833
:1038F000F34E8F4F0C94112E851CAF1C141E841E8A
:10390000C31EFC1E281F611FBB1FEEE6F8E08CE300
:1039100098E04AE058E01192DC011D92CD01DA01F5
:103920001D92AD01B8E0E03AFB07A9F70E944E13E3
:103930000E94EC136AE972E080EE99E00E9449303F
:103940006FEC74E082E99AE00E94493065E972E028
:1039500084E49BE00E94493065E972E0F7C090E0A2
:1039600080E00E94231460E087E00E9438034090CA
:10397000D6085090D70882E4E3E6F0E1DE01119624
:1039800001900D928A95E1F7E090A310F090A410B9
:10399000E114F10409F4B2C000919F101091A0103D
:1039A00066EA72E0CE0189589F4F0E94001BC05703
:1039B000DF4FE881F981C059D040309709F427C121
:1039C0008581882309F423C14EE1642E712CF8010E
:1039D000EE0FFF1F81E090E08C0F9D1FE80FF91F95
:1039E000C080D180C8010196B3010E94DB2D8C01FB
:1039F00091E0E91AF108F601EE0FFF1FEE0FFF1F2D
:103A0000E452F74F80819181A281B381C256DF4F8A
:103A100088839983AA83BB83CE59D040892B8A2B74
:103A20008B2B09F4B3C0D20114966D917C91AE0139
:103A300042565F4FCE018D5B9F4F0E94D412259658
:103A40008EAC9FAC2597B601CE0188569F4F0E9441
:103A50005F1ACE018E569F4F0E943F1AC456DF4F09
:103A600048815981CC59D040C856DF4F688179814F
:103A7000C859D040CE018E569F4F0E94011A811125
:103A800005C0CE018E569F4F0E942D1A66E972E046
:103A9000CE018E569F4F0E94A91AB4010E94A91A06
:103AA00066E972E00E94A91A63EB72E00E94A91A0B
:103AB000BC01CE0189589F4F0E948819CE018E56B5
:103AC0009F4F0E94C31ACE0188569F4F0E94C31A6F
:103AD000E114F10409F07BCFC057DF4F8881998151
:103AE000C059D040009751F00E942D10C057DF4FB1
:103AF00088819981C059D0400E94B52EEEE6F8E049
:103B00008CE398E04AE058E020EA38E01192DC01CA
:103B10001D92CD01DA011D92AD012E173F07B1F7BD
:103B20000E944E136FED72E080EE99E00E944930E2
:103B300061EF72E082E99AE00E94493060E073E050
:103B400084E49BE00E94493066E073E086EF9BE0EE
:103B50000E944930B092A90CA092A80CCF55DF4F1B
:103B60000FB6F894DEBF0FBECDBFDF91CF911F918E
:103B70000F91FF90EF90DF90CF90BF90AF909F900C
:103B80008F907F906F905F904F900895B601CE0117
:103B90008E569F4F0E945F1ACE018D5B9F4F0E94F1
:103BA0003F1ACA56DF4F48815981C659D040CE5678
:103BB000DF4F68817981C259D040CE018D5B9F4F24
:103BC0000E94011A811105C0CE018D5B9F4F0E949A
:103BD0002D1A66E972E0CE018D5B9F4F0E94A91AF3
:103BE00066E972E00E94A91A6BEB72E00E94A91AC2
:103BF000BC01CE0189589F4F0E948819CE018D5B70
:103C00009F4F0E94C31ACE018E569F4F5FCF62EC2A
:103C100072E08BE79FE00E94791963E972E08BE71D
:103C20009FE00E94791958CF81E090E00E94231410
:103C30000E94EC13E091D608F091D7088091A40976
:103C40009091A509A091A609B091A709C856DF4F88
:103C500088839983AA83BB83C859D04064817581C6
:103C6000AE0148565F4FCE018D5B9F4F0E94D4122C
:103C700083E490E08C0F9D1F029690931D05809326
:103C80001C0548EA59E02EE638E08CE398E0AAE00B
:103C9000B8E08E010D5B1F4F61E0FA017191AF0139
:103CA000772379F1F8017281F901772329F11082E4
:103CB000FC0160836C932F5F3F4F019611960F5F5D
:103CC0001F4FF9E04A3D5F0741F70E944E136BE139
:103CD00073E080EE99E00E94493060E373E082E98E
:103CE0009AE00E94493063E473E084E49BE00E9420
:103CF000493062E573E02ACF6083FC0110821C9298
:103D0000DACFF9011082F9CFEEE6F8E08CE398E023
:103D10004AE058E01192DC011D92CD01DA011D92BA
:103D2000AD01B8E0E03AFB07A9F78091D208909185
:103D3000D308A091D408B091D508FC01E259F74FFF
:103D400021E02083FC01E45CF74F1082865F974FEF
:103D5000FC0120830E944E130E94EC136EE573E079
:103D600080EE99E00E94493063E773E082E99AE0CF
:103D70000E94493068E873E084E49BE00E94493087
:103D80006FE973E0E3CE0E94EC13EEE6F8E08CE31B
:103D900098E04AE058E01192DC011D92CD01DA0171
:103DA0001D92AD01B8E0E03AFB07A9F78091D20877
:103DB0009091D308A091D408B091D508FC01E259A4
:103DC000F74F21E02083FC01E45CF74F1082865F0F
:103DD000974FFC0120830E944E1364EB73E080EE4A
:103DE00099E00E94493060EC73E082E99AE00E9419
:103DF00049306FEC73E0ACCD82E090E00E94231478
:103E0000EEE6F8E08CE398E04AE058E01192DC013D
:103E10001D92CD01DA011D92AD01B8E0E03AFB0739
:103E2000A9F70E944E1363EE73E080EE99E00E94C2
:103E300049306BEE73E082E99AE00E94493060E01D
:103E400074E084E49BE00E94493063E174E07ECE3C
:103E50000E94EC13EEE6F8E08CE398E04AE058E0CC
:103E60001192DC011D92CD01DA011D92AD01B8E085
:103E7000E03AFB07A9F78091D2089091D308A0916E
:103E8000D408B091D508FC01E259F74F21E0208316
:103E9000FC01E45CF74F1082865F974FFC011082B3
:103EA0000E944E1368E274E080EE99E00E9449306F
:103EB0006AE374E082E99AE00E9449306CE474E0BD
:103EC00047CD81E090E00E9423148091DE0990911B
:103ED000DF09AC01092E000C660B770B4093D2086A
:103EE0005093D3086093D4087093D5088A5A9B4F97
:103EF0009F938F9380EE99E09F938F930E945F3002
:103F000068E674E082E99AE00E944930A091D60800
:103F1000B091D708E091D208F091D308EE0FFF1FBF
:103F2000EE0FFF1FE452F74F408151816281738190
:103F3000CE56DF4F488359836A837B83C259D04072
:103F400014966D917C91AE014E565F4FCE01019655
:103F50000E94D41269817A8184E49BE00E944930F6
:103F600062E774E086EF9BE00E9449300F900F906B
:103F70000F900F90EFCD90E080E00E94231480918D
:103F8000DE099091DF09AC01092E000C660B770B5E
:103F90004093D2085093D3086093D4087093D50807
:103FA0008A5A9B4F9F938F9380EE99E09F938F93B4
:103FB0000E945F3068E674E082E99AE00E9449302E
:103FC00065E774E084E49BE00E944930A091D60844
:103FD000B091D708E091D208F091D308EE0FFF1FFF
:103FE000EE0FFF1FE452F74F4081518162817381D0
:103FF000EB964CAF5DAF6EAF7FAFEB9714966D91C4
:104000007C91AE0149585F4FCE0101960E94D412B7
:1040100089819A819F938F9386EF9BE09F938F93E3
:104020000E945F300FB6F894DEBF0FBECDBF92CDB9
:10403000CF92DF92EF92FF92CF93DF9300D01F9247
:10404000CDB7DEB70E94A8136B017C010E94CE138E
:10405000E091D608F091D7088823C1F1C092D80822
:10406000D092D908E092DA08F092DB08C982DA82AD
:10407000EB82FC82BE016F5F7F4F808191810E9445
:104080000313AC01092E000C660B770B4093D2088A
:104090005093D3086093D4087093D5088855964FF1
:1040A000FC018081882379F087E090E00E944C1C1D
:1040B0000F900F900F900F90DF91CF91FF90EF90A6
:1040C000DF90CF90089585E090E0F0CF0480F581F7
:1040D000E02D309769F380819181A281B381C81668
:1040E000D906EA06FB0621F000ACF1ADE02DF1CFD8
:1040F000C092A409D092A509E092A609F092A7095E
:1041000083E090E0D3CF0E94F013882321F082E077
:1041100090E00C944C1C08956F927F928F929F9226
:10412000AF92BF92CF92DF92EF92FF920F931F93C5
:10413000CF93DF9381E0809311110E9438040091A6
:104140000111109102112091031130910411AB0162
:10415000BC01401B510B620B730B80910D119091B0
:104160000E11B0E0A0E084179507A607B70708F086
:1041700005C1C0E080910B11C81760F4E0910711F0
:10418000F0910811EC0FF11D62E080810E94A503FF
:10419000CF5FF0CF712C812C912C540183948091AE
:1041A0000C11781608F05FC0072D10E0E09109119E
:1041B000F0910A11E00FF11F61E080810E94A503D8
:1041C000E0910911F0910A11E00FF11F60E0808188
:1041D0000E943803D501C401072C04C0880F991F21
:1041E000AA1FBB1F0A94D2F76C017C01E094F094E3
:1041F000612C80910B116816F8F4C62DD0E0E09187
:104200000711F0910811EC0FFD1F80810E940F0330
:104210002496CC0FDD1FCB55DF4E892B41F48881CE
:1042200099818C299D29998388836394E2CF888121
:1042300099818E219F21F7CFE0910911F0910A1108
:10424000E00FF11F61E080810E9438038091091125
:1042500090910A11080F191F60E0F80180810E94F7
:10426000A50373949CCFC5EAD0E1FE018FEF9FEFC9
:10427000278D30A1232B21F4148E968F858F11A2C8
:10428000369620E1E13EF20799F7F12C96E0D92E1F
:1042900080910B11F81608F050C0E12C0F2D10E0A2
:1042A000000F111F03551F4E20910C11E21608F04C
:1042B00042C0F801608171810E2C02C0769567952D
:1042C0000A94E2F7F29E900111242E0D311DE5EAC9
:1042D000F0E180E0458D568D2417350709F4F4C0D0
:1042E0008F5F36968A30B1F760FF23C0E5EAF0E1D0
:1042F00090E080E0448D411117C0E0910511F091EC
:104300000611E20FF31F4081D89EF001D99EF00DF7
:104310001124EB55FF4E448F368F258F10A2178E38
:1043200061E00E94440405C0019636968A309105EA
:1043300009F7E394B9CFF394ABCF10E089A18111D1
:10434000182F2696F0E1C13EDF07C1F70E9438041E
:1043500060930111709302118093031190930411E3
:10436000112361F08091C610882341F08091C41020
:104370009091C510C091C110019719F010921111C0
:10438000C0E00E9438046B017C0180ED8C0F8A3004
:10439000B0F5809102080C2F0C2E000C110B81112E
:1043A00030C0C0930208C092FE07D092FF07E0928F
:1043B0000008F092010861E874E080EE99E00E9444
:1043C00049301F93CF9383E994E09F938F9382E9C1
:1043D0009AE09F938F930E945F3065E972E084E4D6
:1043E0009BE00E94493065E972E086EF9BE00E9405
:1043F00049300F900F900F900F900F900F90C0E0EA
:1044000034C0082E000C990BC0972AE0289FE001C9
:10441000299FD00D112400531109C00FD11F61E84D
:1044200074E080EE99E00E944930DF93CF9386E9F3
:1044300094E09F938F9382E99AE09F938F930E94D9
:104440005F3065E972E084E49BE00E94493065E9F1
:1044500072E086EF9BE00E944930109202080F90B4
:104460000F900F900F900F900F908091020888236B
:10447000D9F08091FE079091FF07A0910008B091BC
:104480000108C81AD90AEA0AFB0AE8E8CE16E3E1ED
:10449000DE06E104F10440F0109202088091A80CBD
:1044A0009091A90C0E944C1C8C2FDF91CF911F91F1
:1044B0000F91FF90EF90DF90CF90BF90AF909F90C3
:1044C0008F907F906F90089561702BCF4F925F9285
:1044D0006F927F928F929F92AF92BF92CF92DF9214
:1044E000EF92FF920F931F93CF93DF93CDB7DEB779
:1044F00065970FB6F894DEBF0FBECDBF8C01B62E08
:10450000C62ED12C22EB629FC0011124DC01AA5CD3
:10451000BA4F4D01BD01C8010E9440307601EE0C3A
:10452000FF1C892B49F0F701E25DFA4F11821082DE
:10453000B801C4010E944930F601EF5DFD4FA08033
:10454000F701E25DFA4F20813181AA2009F48CC085
:10455000D8010D900020E9F7CD01801B910B439607
:10456000821793070CF080C0118210820E943804D9
:10457000CC0CDD1CCC0CDD1C9601225E3A4F4901AF
:10458000D9014D905D906D907C9046165706680657
:10459000790608F079C0F80101900020E9F7319719
:1045A000E01BF10B759708F46FC00E943804AB0153
:1045B000BC01F701E75EFD4F80819181092E000C5F
:1045C000AA0BBB0B840F951FA61FB71FF401808396
:1045D0009183A283B383F701E25DFA4F80819181D9
:1045E000FE013196AE014B5E5F4F6F018431910544
:1045F0000CF468C0D8010D900020E9F79D01201B44
:10460000310B2E5E3F4F281739070CF45BC0DC01DD
:104610005497A00FB11F2C91219301964E175F075D
:1046200029F71D8A8B2D0E940918B60184E291E1B9
:104630000E947919F701E25DFA4FAA2009F444C0FB
:10464000208131812F5F3F4F31832083D8010D902E
:104650000020E9F7CD01801B910B439628173907FD
:10466000D1F41182108217C037FF80CFF80101907A
:104670000020E9F7CF01801B910BF701E25DFA4FB3
:1046800042969183808372CF0E9438044616570663
:104690006806790658F165960FB6F894DEBF0FBE2E
:1046A000CDBFDF91CF911F910F91FF90EF90DF90E1
:1046B000CF90BF90AF909F908F907F906F905F90C2
:1046C0004F90089520E2A8CF808191810197918336
:1046D000808397FFE0CFD8010D900020E9F7CD014E
:1046E000801B910B429691838083D5CFF801019076
:1046F0000020E9F73197E01BF10B759760F60E94F7
:104700003804D601A25EBA4FF701E75EFD4FC080C4
:10471000D1800D2C000CEE08FF08AB01BC014C0D44
:104720005D1D6E1D7F1D4D935D936D937C9313975F
:104730008B2D0E940918B80184E291E10E94791939
:10474000AACF2F923F924F925F926F927F928F9259
:104750009F92AF92BF92CF92DF92EF92FF920F9310
:104760001F93CF93DF93CDB7DEB7C75DD1400FB6B0
:10477000F894DEBF0FBECDBFE0918B0FF0918C0F90
:1047800082E08083E091870FF091880F1082E091A2
:10479000890FF0918A0F8FEC80831092930FE09134
:1047A0008F0FF091900F86E08083E0918D0FF09154
:1047B0008E0F808180618083E0918D0FF0918E0F4C
:1047C000808188608083E0918D0FF0918E0F8081D1
:1047D00080688083E0918D0FF0918E0F80818F7DB6
:1047E00080831092F50C1092F40C1092F70C10923A
:1047F000F60C0E94660380E292E090931F0D809376
:104800001E0D81E292E09093230D8093220D109271
:10481000291180912F11823018F098E0909329117E
:1048200080932C1162E370E080E090E00E94060427
:104830006091301184E291E10E94DF0568EE73E03F
:1048400080E090E00E94060460E384E291E10E942F
:10485000D9170BE416E4C8010197F1F760E384E28D
:1048600091E10E94D917C8010197F1F760E384E252
:1048700091E10E94D91783E592E00197F1F760E298
:1048800084E291E10E94D91760912911606240E0B1
:1048900084E291E10E94F21784E080932A1140E0C3
:1048A0006CE084E291E10E94F21740E061E084E272
:1048B00091E10E94F2178BE39FE10197F1F780915C
:1048C0002D11882319F080E00E94091882E080935E
:1048D0002B1140E066E084E291E10E94F21740E093
:1048E00062E084E291E10E94F2178BE39FE101977D
:1048F000F1F788E08093301160E084E291E10E945A
:10490000DF0569E974E080EE99E00E94493067EACA
:1049100074E082E99AE00E94493069EB74E084E433
:104920009BE00E9449306AEC74E086EF9BE00E94B5
:10493000493060E080EE99E00E94662261E082E901
:104940009AE00E94662262E084E49BE00E94662274
:1049500063E086EF9BE00E9466220E949E1261E067
:10496000809122110E94A50361E0809122110E9492
:104970003803809123118F3F09F4CFC060E00E947B
:10498000A503809123110E940F03892B09F0C5C054
:1049900061E0809123110E94A50360E080912311C2
:1049A0000E94380383E090E00197F1F761E0809185
:1049B00023110E94380362E370E080E090E00E94DF
:1049C000060440E064E284E191E10E942A1240E0A2
:1049D00066E284E191E10E942A1246E268E484E101
:1049E00091E10E942A1240E864E584E191E10E948D
:1049F0002A1249EA66E584E191E10E942A1243E025
:104A000068E584E191E10E942A1248EE6AE584E1BA
:104A100091E10E942A1240E46AE284E191E10E945D
:104A20002A124DE362E284E191E10E942A1268E2D7
:104A300084E191E10E940C12982F9370933039F029
:104A4000482F436068E284E191E10E942A1261E00C
:104A500085E30E94A50380914910882321F084E416
:104A600090E10E942D1010922510109223101092A8
:104A7000201010921F1085E380931E100E943804AE
:104A80008B0161E080911E100E94A50361E080917E
:104A90001E100E9438030E949E1282E58093181017
:104AA0001092191080911810909119100E945007BF
:104AB0005AE0F52E8FEF0E942B07FA94F110FACFEF
:104AC0008AE190E10E94820720E030E0A90160E0E5
:104AD0008AE190E10E949807F82E8093241081E0EB
:104AE000F81691F10E943804601B710B613D77400C
:104AF00058F381E080931F108AE190E10E94200723
:104B000067EE74E08BE79FE00E94791963E972E039
:104B10008BE79FE00E947919FFCF4FE062E084E1CC
:104B200091E10E942A1213E062E370E080E090E0DD
:104B30000E94060462E084E191E10E940C1284FF6D
:104B400040CF115089F73DCF2AEA31E040E050E0F4
:104B500068E08AE190E10E94980782FF2AC0F09203
:104B6000251080912510C12CD12C7601823029F49A
:104B7000C12CD12CE12C30E4F32E20E030E0A9014F
:104B800067E38AE190E10E949807A701960169E234
:104B90008AE190E10E949807809324108823D1F045
:104BA0000E943804601B710B613D774030F388E050
:104BB000A1CF44E0F42E0E94320780932410FA948F
:104BC000F110F9CF8A3A11F082E094CF82E080931D
:104BD0002510C7CF809125108230D1F420E030E03D
:104BE000A9016AE38AE190E10E949807882311F005
:104BF00086E080CF0E943207807C803C19F483E0FD
:104C0000809325100E9432070E9432070E943207CB
:104C10008AE190E10E94200780E5809318101092AD
:104C2000191081E00E949E09882309F4A8C084E439
:104C300090E10E94550C882309F462CF8CE0EAE1F0
:104C4000F0E1DE01AB5DBE4F01900D928A95E1F778
:104C50008EE1E6E2F0E1A5E2B1E0AC0FBD1F1C96EB
:104C600001900D928A95E1F764E470E185E291E0AC
:104C70008C0F9D1F8A960E947214809161109091F2
:104C80006210C459DE4F99838883CC56D14088E0A6
:104C900090E00E94192E8C01FC0111821082138277
:104CA000128215821482178216828BED94E00E9484
:104CB000F31B6C01BC01CE018D569F4F0E94201941
:104CC000C15EDE4FE880F980CF51D140CD5DDE4F2F
:104CD00088809980C352D14026E4222E312C811441
:104CE000910409F453C0F701EE0FFF1F83E990E030
:104CF0008C0F9D1FE80FF91FC7010196B1010E949B
:104D0000DB2D7C0191E0891A910866E972E08081CF
:104D100091810E94592D5C0166E972E090E080E08B
:104D20000E94592D0E943B2D3C01C5010E943B2D44
:104D30005C01D80112964D905C90B2E34B16510481
:104D400070F688E090E00E94192EFC01C501BB0CB2
:104D5000AA0BBB0B80839183A283B3837582648289
:104D6000D8018D919C91119797838683ED93FC9345
:104D7000BFEF4B1A5B0AF80153824282B0CF80E04A
:104D80000E949E09882309F4BBCE51CFC114D104DF
:104D900019F0C6010E94B52E8BE095E00E94F31B2E
:104DA0005C01BC01CE0101960E942019C357DF4F60
:104DB000C880D980CD58D040CF56DF4F4880598029
:104DC000C159D0408EE691E08C0F9D1F0296CC52C7
:104DD000DE4F99838883C45DD1404114510409F4A6
:104DE00096C0F601EE0FFF1FA1E0B0E0AC0FBD1FB3
:104DF000EA0FFB1FC601019666E470E00E94DB2DFE
:104E00006C01B1E04B1A510866E972E08081918132
:104E10000E94592D3C0166E972E090E080E00E941A
:104E2000592D1C017E01EEE5EE1AEEEFFE0A470158
:104E3000F2E38F0E911CCA52DE4FE882C65DD1406C
:104E4000C952DE4FF882C75DD14066E972E090E05A
:104E500080E00E94592D0E943B2D21E0892B09F40E
:104E600020E0D7012D937D018A169B0671F782E31E
:104E7000CA52DE4FE881C65DD140C952DE4FF8818B
:104E8000C75DD140CC52DE4FA881B981C45DD1400D
:104E900001900D928A95E1F7C3010E943B2D7C01A0
:104EA000F80186809780FCE38F16910408F095CF77
:104EB0008AE390E00E94192EA701FF0C660B770B86
:104EC000DC014D935D936D937D93C259DE4F398222
:104ED0002882CE56D14024E3FE01E259FE4F0190D4
:104EE0000D922A95E1F7D80114962D913C911597D2
:104EF000FC0131AF20AF15969C938E931497FFEF72
:104F00008F1A9F0A17969C928E92169766CFA114BD
:104F1000B10419F0C5010E94B52E1093D708009373
:104F2000D60861E082E00E94A50361E083E00E9470
:104F3000A50361E086E00E94A50361E084E00E9491
:104F4000A50361E08AE00E94A50361E081E00E9480
:104F5000A50361E082E00E94A50360E083E00E9477
:104F6000A50361E089E00E94A50361E08AE00E9458
:104F7000A50361E08BE00E94A50361E087E00E9449
:104F8000A50361E082E00E94A50360E088E00E9442
:104F9000A50381E090E00E944C1CC952DE4F0FB681
:104FA000F894DEBF0FBECDBFDF91CF911F910F915F
:104FB000FF90EF90DF90CF90BF90AF909F908F9039
:104FC0007F906F905F904F903F902F9008951F9229
:104FD0000F920FB60F9211240BB60F922F933F939F
:104FE0004F935F936F937F938F939F93AF93BF93F1
:104FF000EF93FF938091B900887F803609F44DC00C
:1050000008F040C0883209F4A9C028F5803109F4BD
:105010009DC0C8F4882309F4FBC0883009F496C009
:10502000FF91EF91BF91AF919F918F917F916F9180
:105030005F914F913F912F910F900BBE0F900FBE3C
:105040000F901F901895883109F488C0803241F77D
:105050008093450D14C0803409F49DC040F4803322
:10506000B9F38833E9F68093450D85ECB0C08035FF
:1050700009F485C0883509F496C0883489F60E9401
:10508000A119CECF883909F48CC038F5883729F0BA
:1050900050F4883611F0803719F683E08093460D7E
:1050A0001092440D57C0883809F47BC0803919F03C
:1050B000803809F0B5CF8091440D803208F071C07E
:1050C000E091440D81E08E0F8093440D8091BB00F0
:1050D000F0E0EC5DF24F80833DC0803B39F0E0F4BE
:1050E000803A09F479C0883A09F09ACF84E0809335
:1050F000460D1092210D1092200DE0911E0DF091A1
:105100001F0D19958091200D81110FC081E08093B2
:10511000200D1092FE0C09C0803C09F4A6CF883CFB
:1051200009F4A3CF883B09F07BCFE091210D81E00A
:105130008E0F8093210DF0E0E250F34F8081809339
:10514000BB009091210D8091200D29C080916B0DA5
:105150008093BB0085EC8093BC0062CF90916A0D78
:105160008091690D981758F5E0916A0D81E08E0FD6
:1051700080936A0DF0E0E75BF24F8081E9CFE09128
:105180006A0D81E08E0F80936A0D8091BB00F0E084
:10519000E75BF24F808390916A0D8091690D9817BB
:1051A000C8F285E8D8CFE0916A0D81E08E0F809338
:1051B0006A0D8091BB00F0E0E75BF24F8083809145
:1051C000480D81115CCF81E08093470D84EA809384
:1051D000BC001092460D24CF85EC8093BC00109249
:1051E000460D8091440D803230F4E091440DF0E0A2
:1051F000EC5DF24F10826091440D70E0E091220D61
:10520000F091230D84E29DE019951092440D08CF92
:105210001092450D34CF1F920F920FB60F921124AA
:105220002F933F938F939F93AF93BF938091AB0C3A
:105230009091AC0CA091AD0CB091AE0C3091AA0C39
:1052400023E0230F2D3758F50196A11DB11D2093A2
:10525000AA0C8093AB0C9093AC0CA093AD0CB093C4
:10526000AE0C8091AF0C9091B00CA091B10CB091AC
:10527000B20C0196A11DB11D8093AF0C9093B00CA0
:10528000A093B10CB093B20CBF91AF919F918F914D
:105290003F912F910F900FBE0F901F90189526E809
:1052A000230F0296A11DB11DD2CF1F920F920FB6F0
:1052B0000F9211240BB60F922F933F934F935F934E
:1052C0006F937F938F939F93AF93BF93EF93FF93CE
:1052D0008BE79FE00E941405FF91EF91BF91AF9182
:1052E0009F918F917F916F915F914F913F912F91FE
:1052F0000F900BBE0F900FBE0F901F9018951F922E
:105300000F920FB60F9211240BB60F922F938F931B
:105310009F93EF93FF93E0918B0FF0918C0F80811F
:10532000E091910FF091920F82FD1DC090818091CC
:10533000940F8F5F8F732091950F821741F0E0914A
:10534000940FF0E0E558F04F958F8093940FFF9104
:10535000EF919F918F912F910F900BBE0F900FBEE9
:105360000F901F9018958081F2CF1092720F1092BB
:10537000710F88EE93E0A0E0B0E08093730F9093FC
:10538000740FA093750FB093760F2BE332E0309338
:10539000700F20936F0F10927E0F10927D0F8093ED
:1053A0007F0F9093800FA093810FB093820F8DE4B5
:1053B00092E090937C0F80937B0F85EC90E090932C
:1053C000880F8093870F84EC90E090938A0F8093EE
:1053D000890F80EC90E090938C0F80938B0F81EC81
:1053E00090E090938E0F80938D0F82EC90E09093DD
:1053F000900F80938F0F86EC90E09093920F8093A4
:10540000910F1092940F1092950F1092960F109288
:10541000970F80E5809318101092191010921F10AA
:1054200010922010109223101092251082E090E02C
:10543000A0E0B0E08093261090932710A09328104E
:10544000B093291010923D10109247101092461000
:105450008FE592E09093451080934410109249108C
:1054600010922711109226118FE792E09093251148
:105470008093241110922D1187E28093281184E1EA
:1054800080932E1184E080932F111092301185E7C4
:1054900092E090931511809314118AE08093221169
:1054A00089E0809323111092A7101092AB101092F4
:1054B000AA101092AC108BE692E09093A610809305
:1054C000A510E1ECF0E11082148213821582369669
:1054D00080E1ED3FF807B9F787E092E0909308117B
:1054E0008093071184E092E090930A118093091150
:1054F00084E080930B1183E080930C1187E892E0A5
:1055000090930611809305118AE090E090930E111C
:1055100080930D1184EF91E09093101180930F11FF
:105520001092131110921211109201111092021187
:105530001092031110920411109211111092A010E8
:1055400010929F101092A2101092A1101092A4100D
:105550001092A3100895CF93DF93CDB7DEB72C97A9
:105560000FB6F894DEBF0FBECDBF789484B58260CD
:1055700084BD84B5816084BD85B5826085BD85B5F7
:10558000816085BD80916E00816080936E00109275
:1055900081008091810082608093810080918100F0
:1055A0008160809381008091800081608093800081
:1055B0008091B10084608093B1008091B0008160DF
:1055C0008093B000809191008260809391008091DF
:1055D0009100816080939100809190008160809320
:1055E00090008091A10082608093A1008091A10031
:1055F00081608093A1008091A00081608093A000D1
:10560000809121018260809321018091210181603C
:1056100080932101809120018160809320018091FD
:105620007A00846080937A0080917A00826080930F
:105630007A0080917A00816080937A0080917A006C
:10564000806880937A001092C1000E94A123BB243D
:10565000B3940091A80C1091A90C0230110569F1C6
:105660000E943804C090DA09D090DB09E090DC0990
:10567000F090DD096C197D098E099F0960327E4426
:1056800081059105C0F061E082E00E943803F801D5
:105690003197E930F10520F58827EE5AF44D8F4F08
:1056A0000C94112E872B702B9D2B192C422C6B2CBC
:1056B000732CBC2C232D60E0E7CF60E082E00E94D9
:1056C00038030E948C20082E000C990B9093DF0960
:1056D0008093DE090E944816882331F10E94182029
:1056E00060E080EE99E00E94662261E082E99AE043
:1056F0000E94662262E084E49BE00E94662263E0EE
:1057000086EF9BE00E9466220E94A305A2CF90E054
:1057100080E00E945A140E94F013882309F382E06B
:1057200090E00E944C1CDCCF8091DE099091DF0953
:10573000892BB1F289E090E0F4CF0E9426130E94F9
:1057400093138F3F980729F1FC01E855F64F10821B
:10575000FC01EE0FFF1FEE0FFF1FE452F74F4091C9
:10576000A4095091A5096091A6097091A7094083E9
:10577000518362837383FC01E259F74F1082FC016D
:10578000E45CF74F1082865F974FFC0110820E9405
:105790004E130E948C20082E000C990B9093DF0969
:1057A0008093DE090E9448168823C9F10E94A8133D
:1057B0006B017C010E94CE13882309F491CFC09223
:1057C000D808D092D908E092DA08F092DB08E0918C
:1057D000D608F091D708C986DA86EB86FC86BE012A
:1057E000675F7F4F808191810E940313AC01092E76
:1057F000000C660B770B4093D2085093D30860934C
:10580000D4087093D5088855964FFC018081882371
:1058100019F087E090E085CF84E090E082CF80911E
:10582000DE099091DF09892B09F475CF88E090E0BB
:1058300078CF81E090E00E945A140E942613809154
:10584000D2089091D308A091D408B091D508FC015A
:10585000E056F74F2081222391F0FC01E855F64FE6
:10586000B082880F991F880F991F8452974FFC01AF
:10587000108211821282138283E090E052CF0E9444
:1058800083202ECF82E090E00E945A140E942613BB
:105890008091D2089091D308A091D408B091D508F6
:1058A000FC01E056F74F2081222391F0FC01E855DE
:1058B000F64FB082880F991F880F991F8452974F17
:1058C000FC01108211821282138286E090E029CFBF
:1058D0000E94832005CF0E944816882309F41BCF1D
:1058E0000E941820FDCE90E080E00E945A140E9491
:1058F0002613C090D208D090D308E090D408F0903E
:10590000D508F601E056F74F8081811132C0F601CB
:10591000E855F64F1082E091D608F091D7088091B3
:10592000D8089091D908A091DA08B091DB088D834E
:105930009E83AF83B887BE016B5F7F4F808191816B
:105940000E940313880F991F880F991FFC01E452CE
:10595000F74F80819181A281B381F601EE0FFF1F85
:10596000EE0FFF1FE452F74F80839183A283B3832E
:10597000ACCF0E948320B4CE1092DF091092DE09D2
:105980000E9438046B017C010E9426130E9493132D
:105990008C010E948C20082E000C990B9093DF093B
:1059A0008093DE090F3F1007C1F0F801E855F64F6C
:1059B0001082000F111F000F111FF801E452F74F62
:1059C0008091A4099091A509A091A609B091A70979
:1059D00080839183A283B3834FCF8091DA09909122
:1059E000DB09A091DC09B091DD09C81AD90AEA0ADD
:1059F000FB0A28E8C21623E1D206E104F10408F00C
:105A00003BCF0E944816882309F409CF0E94A813AF
:105A10006B017C010E94CE13882309F461CEC092F1
:105A2000D808D092D908E092DA08F092DB08E09129
:105A3000D608F091D708C982DA82EB82FC82BE01D7
:105A40006F5F7F4FCFCE1092DF091092DE090E9468
:105A500038046C197D098E099F09683873418105E6
:105A6000910508F05CCE0E944816882309F453CEB5
:105A70000E94182035CEFC0188279927E8942191AF
:105A80002032E9F3293010F02E30C8F32B3241F0E8
:105A90002D3239F4689404C00E948F2D820F911D1D
:105AA000219120532A30C0F31EF4909581959F4F89
:105AB000089541E351E10C945D2DFA01A191B0816B
:105AC000009719F41097E1F0CD01DC01CD010D90A4
:105AD000002011F4C00113C0FB012191222319F011
